{
  "contractName": "Item",
  "abi": [
    {
      "inputs": [
        {
          "internalType": "contract ItemManager",
          "name": "_parentContract",
          "type": "address"
        },
        {
          "internalType": "uint256",
          "name": "_priceInWei",
          "type": "uint256"
        },
        {
          "internalType": "uint256",
          "name": "_index",
          "type": "uint256"
        }
      ],
      "stateMutability": "nonpayable",
      "type": "constructor"
    },
    {
      "stateMutability": "nonpayable",
      "type": "fallback"
    },
    {
      "inputs": [],
      "name": "index",
      "outputs": [
        {
          "internalType": "uint256",
          "name": "",
          "type": "uint256"
        }
      ],
      "stateMutability": "view",
      "type": "function"
    },
    {
      "inputs": [],
      "name": "paidWei",
      "outputs": [
        {
          "internalType": "uint256",
          "name": "",
          "type": "uint256"
        }
      ],
      "stateMutability": "view",
      "type": "function"
    },
    {
      "inputs": [],
      "name": "priceInWei",
      "outputs": [
        {
          "internalType": "uint256",
          "name": "",
          "type": "uint256"
        }
      ],
      "stateMutability": "view",
      "type": "function"
    },
    {
      "stateMutability": "payable",
      "type": "receive"
    }
  ],
  "bytecode": "0x608060405234801561001057600080fd5b506040516104b53803806104b58339818101604052606081101561003357600080fd5b810190808051906020019092919080519060200190929190805190602001909291905050508160008190555060006001819055508060028190555082600360006101000a81548173ffffffffffffffffffffffffffffffffffffffff021916908373ffffffffffffffffffffffffffffffffffffffff1602179055505050506103f4806100c16000396000f3fe6080604052600436106100385760003560e01c80632986c0e51461032b5780633c8da5881461035657806383d12eef146103815761031c565b3661031c5760005434146100b4576040517f08c379a00000000000000000000000000000000000000000000000000000000081526004018080602001828103825260108152602001807f4e6f7420656f69676820666f756e64730000000000000000000000000000000081525060200191505060405180910390fd5b60006001541461012c576040517f08c379a000000000000000000000000000000000000000000000000000000000815260040180806020018281038252600d8152602001807f4974656d20736f6c64206f75740000000000000000000000000000000000000081525060200191505060405180910390fd5b346001600082825401925050819055506000600360009054906101000a900473ffffffffffffffffffffffffffffffffffffffff1673ffffffffffffffffffffffffffffffffffffffff1634600254604051602401808281526020019150506040516020818303038152906040527fd33a6c17000000000000000000000000000000000000000000000000000000007bffffffffffffffffffffffffffffffffffffffffffffffffffffffff19166020820180517bffffffffffffffffffffffffffffffffffffffffffffffffffffffff83818316178352505050506040518082805190602001908083835b6020831061023b5780518252602082019150602081019050602083039250610218565b6001836020036101000a03801982511681845116808217855250505050505090500191505060006040518083038185875af1925050503d806000811461029d576040519150601f19603f3d011682016040523d82523d6000602084013e6102a2565b606091505b5050905080610319576040517f08c379a00000000000000000000000000000000000000000000000000000000081526004018080602001828103825260158152602001807f44656c697665727920646964206e6f7420776f726b000000000000000000000081525060200191505060405180910390fd5b50005b34801561032857600080fd5b50005b34801561033757600080fd5b506103406103ac565b6040518082815260200191505060405180910390f35b34801561036257600080fd5b5061036b6103b2565b6040518082815260200191505060405180910390f35b34801561038d57600080fd5b506103966103b8565b6040518082815260200191505060405180910390f35b60025481565b60005481565b6001548156fea264697066735822122093b83427c9973d05974cc878e2e23e3e61e455138563e29b89b44ae310f4cfaf64736f6c63430007060033",
  "immutableReferences": {},
  "source": "\nimport \"./ItemManager.sol\";\n\ncontract Item {\n    uint  public priceInWei;\n    uint public paidWei;\n    uint public index;\n\n    ItemManager parentContract;\n\n    constructor (ItemManager _parentContract, uint _priceInWei, uint _index){\n        priceInWei = _priceInWei;\n        paidWei = 0;\n        index = _index;\n        parentContract = _parentContract;\n    }\n\n\n    fallback() external {}\n\n    \n    receive() external payable {\n        require(msg.value == priceInWei, \"Not eoigh founds\");\n        require(paidWei == 0, \"Item sold out\");\n\n        paidWei += msg.value;\n        (bool success, ) = address(parentContract).call{value:msg.value}(abi.encodeWithSignature(\"triggerPayment\", index));\n        \n        require(success, \"Delivery did not work\");\n    }\n    \n}",
  "sourcePath": "/home/alberto/truffle_react/contracts/Item.sol",
  "compiler": {
    "name": "solc",
    "version": "0.7.6+commit.7338295f.Emscripten.clang"
  },
  "schemaVersion": "3.4.4",
  "updatedAt": "2021-12-23T17:16:30.864Z",
  "devdoc": {
    "kind": "dev",
    "methods": {},
    "version": 1
  },
  "userdoc": {
    "kind": "user",
    "methods": {},
    "version": 1
  }
}