{
  "contractName": "ItemManager",
  "abi": [
    {
      "anonymous": false,
      "inputs": [
        {
          "indexed": false,
          "internalType": "uint256",
          "name": "_itemIndex",
          "type": "uint256"
        },
        {
          "indexed": false,
          "internalType": "enum ItemManager.SupplyChainSteps",
          "name": "_step",
          "type": "uint8"
        },
        {
          "indexed": false,
          "internalType": "address",
          "name": "_address",
          "type": "address"
        }
      ],
      "name": "SupplyChainStep",
      "type": "event"
    },
    {
      "inputs": [
        {
          "internalType": "uint256",
          "name": "",
          "type": "uint256"
        }
      ],
      "name": "items",
      "outputs": [
        {
          "internalType": "contract Item",
          "name": "_item",
          "type": "address"
        },
        {
          "internalType": "enum ItemManager.SupplyChainSteps",
          "name": "_step",
          "type": "uint8"
        },
        {
          "internalType": "string",
          "name": "_identifier",
          "type": "string"
        }
      ],
      "stateMutability": "view",
      "type": "function",
      "constant": true
    },
    {
      "inputs": [
        {
          "internalType": "string",
          "name": "_identifier",
          "type": "string"
        },
        {
          "internalType": "uint256",
          "name": "_priceInWei",
          "type": "uint256"
        }
      ],
      "name": "createItem",
      "outputs": [],
      "stateMutability": "nonpayable",
      "type": "function"
    },
    {
      "inputs": [
        {
          "internalType": "uint256",
          "name": "_index",
          "type": "uint256"
        }
      ],
      "name": "triggerPayment",
      "outputs": [],
      "stateMutability": "payable",
      "type": "function",
      "payable": true
    },
    {
      "inputs": [
        {
          "internalType": "uint256",
          "name": "_index",
          "type": "uint256"
        }
      ],
      "name": "triggerDelivery",
      "outputs": [],
      "stateMutability": "nonpayable",
      "type": "function"
    }
  ],
  "bytecode": "0x608060405234801561001057600080fd5b50610f7d806100206000396000f3fe60806040526004361061003f5760003560e01c8063800fb83f146100445780638c55174214610072578063bfb231d214610144578063cd31831e14610227575b600080fd5b6100706004803603602081101561005a57600080fd5b8101908080359060200190929190505050610262565b005b34801561007e57600080fd5b506101426004803603604081101561009557600080fd5b81019080803590602001906401000000008111156100b257600080fd5b8201836020820111156100c457600080fd5b803590602001918460018302840111640100000000831117156100e657600080fd5b91908080601f016020809104026020016040519081016040528093929190818152602001838380828437600081840152601f19601f8201169050808301925050505050505091929192908035906020019092919050505061056b565b005b34801561015057600080fd5b5061017d6004803603602081101561016757600080fd5b810190808035906020019092919050505061072c565b604051808473ffffffffffffffffffffffffffffffffffffffff1681526020018360028111156101a957fe5b815260200180602001828103825283818151815260200191508051906020019080838360005b838110156101ea5780820151818401526020810190506101cf565b50505050905090810190601f1680156102175780820380516001836020036101000a031916815260200191505b5094505050505060405180910390f35b34801561023357600080fd5b506102606004803603602081101561024a57600080fd5b810190808035906020019092919050505061081b565b005b600080600083815260200190815260200160002060000160009054906101000a900473ffffffffffffffffffffffffffffffffffffffff1690503373ffffffffffffffffffffffffffffffffffffffff168173ffffffffffffffffffffffffffffffffffffffff1614610320576040517f08c379a0000000000000000000000000000000000000000000000000000000008152600401808060200182810382526037815260200180610f116037913960400191505060405180910390fd5b348173ffffffffffffffffffffffffffffffffffffffff16633c8da5886040518163ffffffff1660e01b815260040160206040518083038186803b15801561036757600080fd5b505afa15801561037b573d6000803e3d6000fd5b505050506040513d602081101561039157600080fd5b810190808051906020019092919050505014610415576040517f08c379a00000000000000000000000000000000000000000000000000000000081526004018080602001828103825260118152602001807f4e6f7420656e6f75676820666f756e647300000000000000000000000000000081525060200191505060405180910390fd5b6000600281111561042257fe5b60008084815260200190815260200160002060000160149054906101000a900460ff16600281111561045057fe5b146104c3576040517f08c379a00000000000000000000000000000000000000000000000000000000081526004018080602001828103825260118152602001807f4974656d20616c726561647920736f6c6400000000000000000000000000000081525060200191505060405180910390fd5b6001600080600154815260200190815260200160002060000160146101000a81548160ff021916908360028111156104f757fe5b02179055507fc1f97306b25ff2c9632b6d5a88819f536774978f819078dff1299c9bb69bcc596001546001836040518084815260200183600281111561053957fe5b81526020018273ffffffffffffffffffffffffffffffffffffffff168152602001935050505060405180910390a15050565b6000308260015460405161057e906109a3565b808473ffffffffffffffffffffffffffffffffffffffff1681526020018381526020018281526020019350505050604051809103906000f0801580156105c8573d6000803e3d6000fd5b50905060405180606001604052808273ffffffffffffffffffffffffffffffffffffffff168152602001600060028111156105ff57fe5b815260200184815250600080600154815260200190815260200160002060008201518160000160006101000a81548173ffffffffffffffffffffffffffffffffffffffff021916908373ffffffffffffffffffffffffffffffffffffffff16021790555060208201518160000160146101000a81548160ff0219169083600281111561068757fe5b021790555060408201518160010190805190602001906106a89291906109b0565b509050507fc1f97306b25ff2c9632b6d5a88819f536774978f819078dff1299c9bb69bcc59600154600083604051808481526020018360028111156106e957fe5b81526020018273ffffffffffffffffffffffffffffffffffffffff168152602001935050505060405180910390a160018060008282540192505081905550505050565b60006020528060005260406000206000915090508060000160009054906101000a900473ffffffffffffffffffffffffffffffffffffffff16908060000160149054906101000a900460ff1690806001018054600181600116156101000203166002900480601f0160208091040260200160405190810160405280929190818152602001828054600181600116156101000203166002900480156108115780601f106107e657610100808354040283529160200191610811565b820191906000526020600020905b8154815290600101906020018083116107f457829003601f168201915b5050505050905083565b6001600281111561082857fe5b60008083815260200190815260200160002060000160149054906101000a900460ff16600281111561085657fe5b146108c9576040517f08c379a000000000000000000000000000000000000000000000000000000000815260040180806020018281038252601a8152602001807f4974656d20686173206e6f74206265656e20706169642079657400000000000081525060200191505060405180910390fd5b600260008083815260200190815260200160002060000160146101000a81548160ff021916908360028111156108fb57fe5b02179055507fc1f97306b25ff2c9632b6d5a88819f536774978f819078dff1299c9bb69bcc59600154600260008085815260200190815260200160002060000160009054906101000a900473ffffffffffffffffffffffffffffffffffffffff166040518084815260200183600281111561097257fe5b81526020018273ffffffffffffffffffffffffffffffffffffffff168152602001935050505060405180910390a150565b6104b580610a5c83390190565b828054600181600116156101000203166002900490600052602060002090601f0160209004810192826109e65760008555610a2d565b82601f106109ff57805160ff1916838001178555610a2d565b82800160010185558215610a2d579182015b82811115610a2c578251825591602001919060010190610a11565b5b509050610a3a9190610a3e565b5090565b5b80821115610a57576000816000905550600101610a3f565b509056fe608060405234801561001057600080fd5b506040516104b53803806104b58339818101604052606081101561003357600080fd5b810190808051906020019092919080519060200190929190805190602001909291905050508160008190555060006001819055508060028190555082600360006101000a81548173ffffffffffffffffffffffffffffffffffffffff021916908373ffffffffffffffffffffffffffffffffffffffff1602179055505050506103f4806100c16000396000f3fe6080604052600436106100385760003560e01c80632986c0e51461032b5780633c8da5881461035657806383d12eef146103815761031c565b3661031c5760005434146100b4576040517f08c379a00000000000000000000000000000000000000000000000000000000081526004018080602001828103825260108152602001807f4e6f7420656f69676820666f756e64730000000000000000000000000000000081525060200191505060405180910390fd5b60006001541461012c576040517f08c379a000000000000000000000000000000000000000000000000000000000815260040180806020018281038252600d8152602001807f4974656d20736f6c64206f75740000000000000000000000000000000000000081525060200191505060405180910390fd5b346001600082825401925050819055506000600360009054906101000a900473ffffffffffffffffffffffffffffffffffffffff1673ffffffffffffffffffffffffffffffffffffffff1634600254604051602401808281526020019150506040516020818303038152906040527fd33a6c17000000000000000000000000000000000000000000000000000000007bffffffffffffffffffffffffffffffffffffffffffffffffffffffff19166020820180517bffffffffffffffffffffffffffffffffffffffffffffffffffffffff83818316178352505050506040518082805190602001908083835b6020831061023b5780518252602082019150602081019050602083039250610218565b6001836020036101000a03801982511681845116808217855250505050505090500191505060006040518083038185875af1925050503d806000811461029d576040519150601f19603f3d011682016040523d82523d6000602084013e6102a2565b606091505b5050905080610319576040517f08c379a00000000000000000000000000000000000000000000000000000000081526004018080602001828103825260158152602001807f44656c697665727920646964206e6f7420776f726b000000000000000000000081525060200191505060405180910390fd5b50005b34801561032857600080fd5b50005b34801561033757600080fd5b506103406103ac565b6040518082815260200191505060405180910390f35b34801561036257600080fd5b5061036b6103b2565b6040518082815260200191505060405180910390f35b34801561038d57600080fd5b506103966103b8565b6040518082815260200191505060405180910390f35b60025481565b60005481565b6001548156fea264697066735822122093b83427c9973d05974cc878e2e23e3e61e455138563e29b89b44ae310f4cfaf64736f6c634300070600334f6e6c79206974656d20636f756c642075706461746520697473656c66206e6f2065787465726e616c206167656e7420616c6c6f776564a26469706673582212202517f4322badbc4dba8084be2d0e0f4802743b10efa44ab70d44bd491dd1f28264736f6c63430007060033",
  "immutableReferences": {},
  "source": "\nimport \"./Item.sol\";\n\ncontract ItemManager {\n    enum SupplyChainSteps {Created, Paid, Delivered}\n\n    struct S_Item{\n        Item _item;\n        SupplyChainSteps _step;\n        string _identifier;\n    }\n\n    mapping (uint => S_Item) public items;\n\n    uint index;\n\n    event SupplyChainStep (uint _itemIndex, SupplyChainSteps _step, address _address);\n\n    function createItem(string memory _identifier, uint _priceInWei) public {\n        Item item = new Item(this, _priceInWei, index);\n        items[index] = S_Item(\n            {\n                _item: item,\n                _step: SupplyChainSteps.Created,\n                _identifier: _identifier\n            });\n    \n        emit SupplyChainStep(index, SupplyChainSteps.Created, address(item));\n        index+=1;\n    }\n\n    function triggerPayment(uint _index) public payable {\n        Item item = items[_index]._item;\n        require(address(item) == msg.sender, \"Only item could update itself no external agent allowed\");\n        require(item.priceInWei() == msg.value, \"Not enough founds\");\n        require(items[_index]._step == SupplyChainSteps.Created, \"Item already sold\");\n\n        items[index]._step = SupplyChainSteps.Paid;\n        emit SupplyChainStep(index, SupplyChainSteps.Paid, address(item));\n    }\n\n    function triggerDelivery(uint _index) public {\n        require(items[_index]._step == SupplyChainSteps.Paid, \"Item has not been paid yet\");\n        items[_index]._step = SupplyChainSteps.Delivered;\n        emit SupplyChainStep(index, SupplyChainSteps.Delivered, address(items[_index]._item));\n    }\n\n\n\n}",
  "sourcePath": "/home/alberto/truffle_react/contracts/ItemManager.sol",
  "compiler": {
    "name": "solc",
    "version": "0.7.6+commit.7338295f.Emscripten.clang"
  },
  "schemaVersion": "3.4.4",
  "updatedAt": "2021-12-23T19:03:33.424Z",
  "networkType": "ethereum",
  "devdoc": {
    "kind": "dev",
    "methods": {},
    "version": 1
  },
  "userdoc": {
    "kind": "user",
    "methods": {},
    "version": 1
  }
}